:020000040800F2
:10000000000002208922000825220008272200087B
:10001000292200082B2200082D22000800000000E1
:100020000000000000000000000000002F22000877
:1000300031220008000000003322000835220008A9
:10004000D9220008D9220008D9220008D9220008A4
:10005000D9220008D9220008D9220008D922000894
:10006000D9220008D9220008D9220008D922000884
:10007000D9220008D9220008D9220008D922000874
:10008000D9220008D9220008D9220008D922000864
:10009000D9220008D9220008D9220008D922000854
:1000A000D9220008D9220008D9220008D922000844
:1000B000D9220008D9220008D9220008D922000834
:1000C000D9220008D9220008D9220008D922000824
:1000D000D9220008D9220008D9220008D922000814
:1000E000D9220008D9220008D9220008D922000804
:1000F000D9220008D9220008D9220008D9220008F4
:10010000D9220008D9220008D9220008D9220008E3
:10011000D9220008D9220008D9220008D9220008D3
:10012000D9220008D9220008D9220008D9220008C3
:10013000D9220008D9220008D9220008D9220008B3
:10014000D9220008D9220008D9220008D9220008A3
:10015000D9220008D9220008D9220008D922000893
:10016000D9220008D9220008D9220008D922000883
:10017000D9220008D9220008D92200080000000076
:08018000D9220008D922000871
:1001900010B5054C237833B9044B13B10448AFF3C1
:1001A00000800123237010BD8800002000000000A3
:1001B000882B000808B5034B1BB103490348AFF374
:1001C000008008BD000000008C000020882B000883
:1001D00053B94AB9002908BF00281CBF4FF0FF31AE
:1001E0004FF0FF3000F072B9ADF1080C6DE904CEAC
:1001F00000F006F8DDF804E0DDE9022304B0704702
:100200002DE9F047089E04468846002B4BD18A42D0
:10021000154667D9B2FA82F24AB1C2F1200701FA53
:1002200002F320FA07F7954047EA030894404FEAA3
:10023000154E230CB8FBFEF71FFA85FC0EFB178842
:1002400043EA084307FB0CF1994209D9EB1807F17F
:10025000FF3080F01B81994240F21881023F2B440D
:100260005B1AA4B2B3FBFEF00EFB103344EA034466
:1002700000FB0CFCA44509D92C1900F1FF3380F0D8
:100280000781A44540F2048102382C4440EA07402B
:10029000A4EB0C0400271EB1D4400023C6E90043A0
:1002A0003946BDE8F0878B4209D9002E00F0EB807B
:1002B0000027C6E9000138463946BDE8F087B3FAA1
:1002C00083F7002F47D18B4202D3824200F2FA809B
:1002D000841A61EB030301209846002EE0D0C6E9A2
:1002E0000048DDE702B9FFDEB2FA82F2002A40F0F0
:1002F0008F80491B4FEA154E1FFA85F80127B1FB85
:10030000FEFC230C0EFB1C1143EA014308FB0CF11D
:10031000994207D9EB180CF1FF3002D2994200F252
:10032000CD808446591AA3B2B1FBFEF00EFB101427
:1003300043EA044408FB00F8A04507D92C1900F152
:10034000FF3302D2A04500F2B6801846A4EB0804A1
:1003500040EA0C409FE7C7F1200CBB4022FA0CFE9C
:100360004EEA030E01FA07F420FA0CF521FA0CF319
:100370004FEA1E482543B3FBF8F92C0C08FB193350
:100380001FFA8EFA44EA034309FB0AF49C4202FA7C
:1003900007F200FA07F10BD91EEB030309F1FF3056
:1003A00080F087809C4240F28480A9F10209734466
:1003B0001B1BADB2B3FBF8F008FB103345EA034456
:1003C00000FB0AFAA24508D91EEB040400F1FF3332
:1003D0006BD2A24569D90238744440EA0940A0FBB7
:1003E0000289A4EB0A044C45C2464B4654D351D073
:1003F000002E69D0B1EB0A0564EB030404FA0CFC8F
:10040000FD40FC404CEA0505C6E90054002747E7DB
:10041000C2F1200320FA03F7954001FA02F021FA15
:1004200003F34FEA154E3843010CB3FBFEF71FFAF6
:1004300085F80EFB173341EA034107FB08F38B42B3
:1004400004FA02F407D9691807F1FF3C2FD28B4256
:100450002DD9023F2944CB1A81B2B3FBFEF00EFB2B
:10046000103341EA034100FB08F38B4207D96918B6
:1004700000F1FF3C17D28B4215D902382944C91A22
:1004800040EA07473BE73746304609E70746E7E6D5
:100490001846FBE64145ABD2B8EB020A69EB0E0207
:1004A00001381346A4E76046E9E7184695E7674632
:1004B000D1E781467CE702382C4447E7ACF1020CD7
:1004C0002B442FE7384608E73746E9E6704700BF78
:1004D00001F0FF01102A2BDB10F0070F08D010F8F5
:1004E000013B013A8B422DD010F0070F42B3F6D1F9
:1004F000F0B441EA012141EA014122F007047FF012
:1005000000070023F0E80256083C85EA010586EA68
:10051000010685FA47F5A3FA87F586FA47F6A5FAA4
:1005200087F68EB9EED1F0BC01F0FF0102F00702B0
:1005300032B110F8013B013A83EA010313B1F8D15B
:100540000020704701387047002D06BF354603383C
:10055000073815F0010F07D1013015F4807F02BF75
:10056000013015F4C03F0130F0BC0138704700BFC6
:1005700010B504460E4B18784FF47A73B3FBF0F3C2
:100580000C4A1068B0FBF3F000F09CF868B90F2C2F
:1005900001D901200AE0002221464FF0FF3000F08F
:1005A0005DF8034B5C60002000E0012010BD00BF3F
:1005B000000000202000002008B50B4B1A6842F410
:1005C00000721A601A6842F480621A601A6842F473
:1005D00080721A60032000F02FF80020FFF7C8FF98
:1005E00001F0BCFD002008BD003C0240034A116838
:1005F000034B1B780B441360704700BFC0040020FE
:1006000000000020014B1868704700BFC0040020A4
:1006100038B50446FFF7F6FF0546B4F1FF3F02D0B8
:10062000044B1B781C44FFF7EDFF401BA042FAD39C
:1006300038BD00BF00000020074AD36823F4E06300
:100640001B041B0C000200F4E060184340F0BF6084
:1006500040F40030D060704700ED00E030B4174B3C
:10066000DB68C3F30223C3F10704042C28BF04246E
:100670001D1D062D18D9033B4FF0FF3505FA04F474
:1006800021EA0401994005FA03F322EA030319431E
:1006900000280BDB0901C9B200F1604000F56140A0
:1006A00080F8001330BC70470023E5E700F00F002E
:1006B0000901C9B2024B1954F4E700BF00ED00E094
:1006C00014ED00E00138B0F1807F0AD2064B58608B
:1006D000064AF02182F823100020986007221A6051
:1006E00070470120704700BF10E000E000ED00E01F
:1006F00000230F2B00F2D780F0B482B039E007223C
:1007000000E00022B2403A430234674E46F824200B
:10071000664A1468EA4302EA04064F6817F4803F09
:1007200001D045EA0406614C2660646802EA0406CA
:100730004F6817F4003F01D045EA04065B4C666041
:10074000A46802EA04064F6817F4801F01D045EA46
:100750000406564CA660E46822404E6816F4001F5A
:1007600001D045EA0402514CE26001330F2B00F244
:10077000978001229A400C6804EA0205AA42F4D14B
:100780004C68022C01D0122C10D1DE08083650F82B
:1007900026C003F00704A7000F24BC402CEA040C79
:1007A0000C69BC4044EA0C0440F8264004685F0031
:1007B0000326BE40F64306EA040C4C6804F003042A
:1007C000BC4044EA0C0404604C6804F1FF3CBCF1FA
:1007D000010F03D9112C01D0122C10D1846806EA24
:1007E000040CCC68BC4044EA0C048460446824EAED
:1007F00002024C68C4F300149C4014434460C26875
:1008000016408A68BA403243C2604A6812F0805F7C
:10081000ABD000220192264A546C44F480445464C4
:10082000526C02F480420192019A9C08A61C1E4A56
:1008300052F8267003F0030296000F22B24027EA16
:1008400002071C4A90423FF45CAF02F5806290427E
:100850001AD002F58062904218D002F58062904270
:1008600016D002F58062904214D002F58062904268
:1008700012D002F58062904210D002F58062904260
:100880003FF43DAF08223DE701223BE7022239E772
:10089000032237E7042235E7052233E7062231E752
:1008A00002B0F0BC7047704700380140003C014086
:1008B00000380240000002400369194201D10020C3
:1008C00070470120704712B9090481617047816146
:1008D0007047436959404161704703685A6912F48F
:1008E000806F0DD06FF480625A610423036400238B
:1008F0000363202280F83D2080F83C3001207047BF
:1009000000207047F8B506460C4617461D461EE007
:100910002DB1FFF777FE069BC01AA84217D9002316
:100920003363202286F83D2086F83E3086F83C303E
:1009300003201AE033685B6924EA03039BB2B3FA2D
:1009400083F35B099F420FD1B5F1FF3FE0D1C4F3C0
:100950000743012BEED033689B6924EA03039BB263
:10096000B3FA83F35B09EDE70020F8BDF8B5044660
:100970000D4616461F4632E01A6842F400721A60AD
:1009800023686FF480625A61042323640023236385
:10099000202284F83D2084F83C3001202DE026B14F
:1009A000FFF730FEC01BB04219D900232363202279
:1009B00084F83D2084F83C3003201EE023685B6906
:1009C00025EA03039BB2003318BF0123A3B12368B8
:1009D0005A6912F4806FCFD1B6F1FF3FDFD1C5F372
:1009E0000743012BEAD023689B6925EA03039BB2E6
:1009F000003318BF0123E9E70020F8BD70B50446B5
:100A00000D46164623685B6913F0800F19D1204606
:100A1000FFF763FFB8B9B5F1FF3FF3D025B1FFF79A
:100A2000F1FD801BA842EDD9236C43F02003236421
:100A300000232363202284F83D2084F83C300320E7
:100A400000E0002070BD0120FCE700002DE9F0412E
:100A500084B004460E46174698460B9D02681368FC
:100A600043F48073136000950A9B00224FF001113C
:100A7000FFF748FF002847D1236806F0FE061E61F5
:100A80002B460A9A26492046FFF770FF20B1236CB7
:100A9000042B3ED1012338E00023039323685A69D5
:100AA00003929B690393039B2A460A992046FFF70A
:100AB000A5FF034648B1236C042B2CD12268136890
:100AC00043F40073136001231FE0B8F1010F13D04A
:100AD00023683A0A1A612A460A992046FFF78EFFD0
:100AE000034668B1236C042B17D12268136843F4C2
:100AF00000731360012308E02268FFB2176104E06D
:100B00002268FFB2176100E00323184604B0BDE875
:100B1000F0810323F9E70323F7E70323F5E700BF99
:100B20000200010070B504460D46164623685B6955
:100B300013F0040F19D12046FFF7CFFEB8B9B5F175
:100B4000FF3FF3D025B1FFF75DFD801BA842EDD933
:100B5000236C43F02003236400232363202284F8C2
:100B60003D2084F83C30032000E0002070BD0120CF
:100B7000FCE70000002800F0828010B5044690F8E1
:100B80003D30002B41D0242384F83D302268136887
:100B900023F00103136000F023FC3A4BA3FB002376
:100BA0009B0C226853606168374A914232D8013306
:100BB000226813626368344A934235D85B00B0FB05
:100BC000F3F0C0F30B03032B00D804202368D86193
:100BD000E369216A22680B4313602369E168226894
:100BE0000B4393606369A16922680B43D360226859
:100BF000136843F00103136000202064202384F86D
:100C00003D30206384F83E0010BD80F83C3001F098
:100C1000C1FAB8E74FF4967202FB03F31B4AA2FB3A
:100C200003239B090133C3E7A16889B903EB43029E
:100C3000B0FBF2F2C2F30B02B2FA82F25209E2B94D
:100C400091B903EB4303B0FBF3F040F40040BDE780
:100C500003EB830202EB8202B0FBF2F2C2F30B025F
:100C6000B2FA82F25209EAE703EB830303EB830350
:100C7000B0FBF3F040F44040A8E70120A6E70120D4
:100C8000704700BF83DE1B43A0860100D34D621076
:100C90002DE9F04182B004460E4617469846FFF70C
:100CA000B1FC94F83D30DBB2202B04D0022318466F
:100CB00002B0BDE8F0810546009019230122514998
:100CC0002046FFF71FFE002840F0938094F83C3048
:100CD000012B00F09080012384F83C3023681A68CF
:100CE00012F0010F03D11A6842F001021A60226863
:100CF000136823F400631360212384F83D304023FC
:100D000084F83E3000232364089B6362BDF82430DE
:100D100063853D4BE362638D238501950A9B0093B8
:100D200043463A4631462046FFF790FEB0B1236C69
:100D3000042B04D1002384F83C300123B7E70023BF
:100D400084F83C300323B2E7236C042B55D122688E
:100D5000136843F4007313600123A8E7238D002B6D
:100D600028D02A460A992046FFF748FE0028EBD1F2
:100D7000636A5A1C626222681B781361238D013BEF
:100D80009BB22385628D013A92B2628522685169D5
:100D900011F0040FE2D0002BE0D0636A591C6162AD
:100DA0001B781361238D013B2385638D013B9BB22F
:100DB0006385D3E72A460A992046FFF7B3FE034628
:100DC00048B1236C042B1AD12268136843F40073D2
:100DD000136001236BE721680A6842F400720A601D
:100DE000202284F83D20002284F83E2084F83C2014
:100DF0005DE702235BE7022359E7032357E7032359
:100E000055E700BF020010000000FFFF002800F0BF
:100E1000BB8170B582B00446036813F0010F3BD06C
:100E2000A74B9B6803F00C03042B2CD0A44B9B68AE
:100E300003F00C03082B21D06368B3F5803F4FD03B
:100E4000B3F5A02F52D09E4B1A6822F480321A605C
:100E50001A6822F480221A606368002B50D0FFF7D2
:100E6000D1FB0546964B1B6813F4003F14D1FFF7E6
:100E7000C9FB401B6428F5D903208AE1904B5B68CD
:100E800013F4800FD8D08E4B1B6813F4003F03D0AF
:100E90006368002B00F07A81236813F0020F55D0AD
:100EA000874B9B6813F00C0F3ED0854B9B6803F07B
:100EB0000C03082B33D0E368002B68D0814B012250
:100EC0001A60FFF79FFB05467D4B1B6813F0020F6E
:100ED00054D1FFF797FB401B0228F5D9032058E1B6
:100EE000774A136843F480331360B5E7744B1A688C
:100EF00042F480221A601A6842F480321A60ABE72A
:100F0000FFF780FB05466E4B1B6813F4003FC3D010
:100F1000FFF778FB401B6428F5D9032039E1684BC3
:100F20005B6813F4800FC6D1654B1B6813F0020F8A
:100F300004D0E368012B01D001202AE1604A136844
:100F400023F0F803216943EAC1031360236813F017
:100F5000080F40D0636963B35B4B01221A60FFF74F
:100F600051FB0546564B5B6F13F0020F33D1FFF771
:100F700049FB401B0228F5D903200AE1504A1368B7
:100F800023F0F803216943EAC1031360DEE74D4B08
:100F900000221A60FFF736FB0546494B1B6813F029
:100FA000020FD3D0FFF72EFB401B0228F5D90320F8
:100FB000EFE0454B00221A60FFF724FB0546404B4B
:100FC0005B6F13F0020F06D0FFF71CFB401B0228DB
:100FD000F5D90320DDE0236813F0040F79D0384BF6
:100FE0001B6C13F0805F33D100230193344B1A6CD8
:100FF00042F080521A641B6C03F080530193019BF2
:101000000125324B1B6813F4807F23D0A368012B8A
:1010100034D0052B38D02A4B1A6F22F001021A6700
:101020001A6F22F004021A67A368002B36D0FFF76C
:10103000E9FA0646224B1B6F13F0020F48D1FFF767
:10104000E1FA801B41F288339842F3D90320A0E0F3
:101050000025D6E71D4A136843F480731360FFF739
:10106000D1FA0646194B1B6813F4807FCED1FFF7E7
:10107000C9FA801B0228F5D903208AE0104A136FB1
:1010800043F001031367CFE70D4B1A6F42F00402E0
:101090001A671A6F42F001021A67C5E7FFF7B2FA42
:1010A0000646074B1B6F13F0020F11D0FFF7AAFA89
:1010B000801B41F288339842F3D9032069E000BFD6
:1010C0000038024000004742800E47420070004056
:1010D000E5B9A369002B5BD0304A926802F00C029C
:1010E000082A58D0022B17D02D4B00221A60FFF788
:1010F00089FA0446294B1B6813F0007F42D0FFF7A2
:1011000081FA001B0228F5D9032042E0234A136C20
:1011100023F080531364DCE7214B00221A60FFF7B1
:1011200071FA05461D4B1B6813F0007F06D0FFF7D0
:1011300069FA401B0228F5D903202AE0E369226AF4
:101140001343626A43EA8213A26A5208013A43EAED
:101150000243E26A43EA0263104A5360104B0122E1
:101160001A60FFF74FFA04460C4B1B6813F0007F20
:1011700006D1FFF747FA001B0228F5D9032008E043
:10118000002006E0002004E001207047012000E07C
:10119000002002B070BD0120FBE700BF0038024014
:1011A00060004742324B9B6803F00C03042B5CD079
:1011B000082B01D02F4870472DE9F04B2C4B5A6873
:1011C00002F03F025B6813F4800F2BD0284B5B6862
:1011D000C3F388131E4600275C010025E41A65EB63
:1011E0000705A90141EA9461A001001B61EB05011B
:1011F000CB0043EA5073C400A01943EB07014B0234
:1012000043EAD0534402204619460023FEF7E0FF8C
:10121000174B5B68C3F3014301335B00B0FBF3F092
:10122000BDE8F08B124B5B68C3F388131E460027A2
:101230005C010025E41A65EB0705A90141EA946108
:10124000A001001B61EB0501CB0043EA5073C40011
:10125000A01943EB07018B0243EA90538402204616
:1012600019460023FEF7B4FFD2E70348704700BFDA
:10127000003802400024F40000127A00002800F038
:101280009D8070B504464F4B1B6803F00F038B42E3
:1012900009D2CBB24B4A1370136803F00F038B4291
:1012A00001D0012070BD236813F0020F17D013F096
:1012B000040F04D0444A936843F4E05393602368D6
:1012C00013F0080F04D0404A936843F460439360DE
:1012D0003D4A936823F0F003A068034393600D46F2
:1012E000236813F0010F32D06368012B21D09A1EBE
:1012F000012A25D9344A126812F0020F60D032490F
:101300008A6822F0030213438B60FFF77BF90646DD
:101310002D4B9B6803F00C036268B3EB820F16D071
:10132000FFF770F9801B41F288339842F0D903200F
:10133000B8E7254A126812F4003FE0D10120B1E776
:10134000214A126812F0007FD9D10120AAE71D4B73
:101350001B6803F00F03AB4209D9EAB2194B1A70AC
:101360001B6803F00F03AB4201D001209AE723680A
:1013700013F0040F06D0144A936823F4E053E16895
:101380000B439360236813F0080F07D00E4A93684D
:1013900023F46043216943EAC1039360FFF702FF2E
:1013A000094B9B68C3F30313084AD35CD840084B2E
:1013B00018600020FFF7DCF8002073E70120704779
:1013C00001206FE7003C024000380240B45300089F
:1013D00020000020014B1868704700BF200000204B
:1013E00008B5FFF7F7FF044B9B68C3F38223034A5A
:1013F000D35CD84008BD00BF00380240C453000889
:1014000030B583B00446036813F0050F06D1236896
:1014100013F0020F2ED1002003B030BD494B002243
:101420001A60FFF7EFF80546474B1B6813F0006F93
:1014300006D0FFF7E7F8401B0228F5D90320EBE7B9
:101440006268A3681B0743EA82133F4AC2F88430EC
:101450003C4B01221A60FFF7D5F805463A4B1B6852
:1014600013F0006FD3D1FFF7CDF8401B0228F5D958
:101470000320D1E700230193334B1A6C42F08052D2
:101480001A641B6C03F080530193019B2F4A13686D
:1014900043F480731360FFF7B5F805462B4B1B68C8
:1014A00013F4807F06D1FFF7ADF8401B0228F5D971
:1014B0000320B1E7244B1B6F13F4407312D0E26892
:1014C00002F440729A420DD01F4B1A6F22F4407200
:1014D0001F4901200860002008601A671B6F13F085
:1014E000010F13D1E36803F44072B2F5407F1ED0C0
:1014F000154A936823F4F813936013490B6FE2685D
:10150000C2F30B0213430B67002085E7FFF77AF85D
:1015100005460D4B1B6F13F0020FE3D1FFF772F876
:10152000401B41F288339842F3D9032074E70649FF
:101530008A6822F4F81223F0704323F440731343B3
:101540008B60DAE7680047420038024000700040D4
:10155000400E474238B504460268D36823F0A00322
:10156000D360FFF74FF805462368DB6813F0200FC0
:1015700007D1FFF747F8401BB0F57A7FF4D9032075
:1015800000E0002038BD38B50368DA6812F0400F7B
:1015900001D0002038BD04464FF0FF32DA60FFF77B
:1015A00031F805462368DB6813F0400F07D1FFF7D9
:1015B00029F8401BB0F57A7FF4D90320EAE7002030
:1015C000E8E738B500285CD00446437F002B40D0C4
:1015D000022363772368CA225A62236853225A621D
:1015E0002046FFF7D0FF0546002836D122689368D1
:1015F00023F4E00323F04003936021688A68636862
:10160000206903436069034313438B602368E268E6
:101610001A6122681369A16843EA014313612268D1
:10162000D36823F08003D36023689B6813F0200FF6
:101630001BD02268136C23F4802313642268136C7C
:10164000A1690B4313642368FF225A620123637765
:1016500009E0037700F0D8FDBAE72368FF225A6259
:10166000042363770125284638BD2046FFF772FF23
:101670000028DED02368FF225A6204236377012505
:10168000F1E70125EFE7002302E001330A38C0B299
:101690000928FAD81B01DBB21843704770B5037FE5
:1016A000012B66D001230377022343773AB94B78A5
:1016B00013F0100F03D003F0EF030A334B700E4604
:1016C0000446002A32D1C878FFF7DDFF05047078A0
:1016D000FFF7D9FF45EA0025B078FFF7D4FF28438C
:1016E000357840EA45352368CA225A622368532276
:1016F0005A622046FFF747FF064610BB236825F0D5
:101700007F4525F0C0055D602268D36823F0800323
:10171000D36023689B6813F0200F1CD02368FF223E
:101720005A62012363770023237712E0CD7848784B
:10173000000240EA05408D7828430D7840EA45359F
:10174000D1E72368FF225A620423637700232377BB
:101750000126304670BD2046FFF7FCFE0028DDD094
:101760002368FF225A62042363770023237701262C
:10177000EFE70226EDE7F8B5037F012B78D00D46A1
:1017800004460123037702234377002A46D10368E6
:101790009B6813F0400F01D10023CB702878FFF72E
:1017A00072FF06046878FFF76EFF46EA0026A87805
:1017B000FFF769FF3043EE7840EA06462368CA2205
:1017C0005A62236853225A622046FFF7DCFE07461E
:1017D000002835D1236806F07F3626F0FE461E60CD
:1017E0002268936823F48023936021688B68EA68F9
:1017F0002869024313438B602268D36823F0800377
:10180000D36023689B6813F0200F23D02368FF2246
:101810005A62012363770023237719E003689B68EA
:1018200013F0400F01D10023CB702B7868780002B1
:1018300040EA0340AB781843EE7840EA0646BDE73D
:101840002368FF225A62042363770023237701274A
:101850003846F8BD2046FFF77DFE0028D6D0236825
:10186000FF225A6204236377002323770127EFE7DF
:101870000227EDE7F8B5037F012B00F0A9800D46A4
:1018800004460123037702234377002A4DD10368DE
:101890009B6813F0400F01D10023CB70EE692878CC
:1018A000FFF7F1FE07046878FFF7EDFE47EA00272F
:1018B000A878FFF7E8FE0743E87847EA004795F87D
:1018C0002000FFF7E0FE47EA006006436B691E4315
:1018D0006F68AB691F432368CA225A622368532288
:1018E0005A626B6AB3F5807F39D02268936823F41B
:1018F000007393602268936823F400539360FEF7AB
:1019000081FE05462368DA6812F0020F50D1FEF717
:1019100079FE401BB0F57A7FF4D92368FF225A6222
:10192000032060770023237751E003689B6813F05E
:10193000400F01D10023CB70EA6929786B781B0234
:1019400043EA0143A9780B43E97843EA014395F858
:10195000201043EA016313436E691E43B8E722680F
:10196000936823F4807393602268936823F4805310
:101970009360FEF747FE05462368DA6812F0010F10
:101980000DD1FEF73FFE401BB0F57A7FF4D92368F6
:10199000FF225A62032060770023237717E0DE617D
:1019A00023685F642268936843F48073936007E060
:1019B0001E6223689F642268936843F400739360F7
:1019C0002368FF225A620123637700202077F8BD45
:1019D0000220FCE7030903EB83035A0000F00F0029
:1019E0001044C0B2704770B503689B6A4B600368CF
:1019F0001B69C3F30E038B6003681B6803F07F331E
:101A000023F0FE431D0C05F03F000870C3F30626CB
:101A10004E7003F07F048C7005F04005CD705AB90C
:101A20000D46FFF7D7FF28703046FFF7D3FF6870E9
:101A30002046FFF7CFFFA870002070BD70B5036887
:101A40005B6823F07F4323F0C003180CC870C3F316
:101A500004264E7003F03F058D70C3F342330B70C4
:101A60005AB90C46FFF7B6FFE0703046FFF7B2FFF9
:101A700060702846FFF7AEFFA070002070BD000028
:101A800070B58AB0002405940694079408940994CC
:101A90000094274B1A6B42F004021A631A6B02F08F
:101AA00004020092009A01941A6B42F080021A63B9
:101AB0001A6B02F080020192019A02941A6B42F0B2
:101AC00001021A631A6B02F001020292029A039455
:101AD0001A6B42F008021A631A6B02F008020392B2
:101AE000039A04941A6B42F002021A631B6B03F010
:101AF00002030493049B0F4D22464FF47041284685
:101B0000FEF7E1FE012605960694079405A90A480A
:101B1000FEF7EEFD4FF470430593069607940323FA
:101B2000089305A92846FEF7E3FD0AB070BD00BF83
:101B300000380240000C02400000024008B509488D
:101B4000094B036042F21073436000238360C3605B
:101B50004FF48042026143618361C3610362FFF716
:101B600009F808BDC80400200054004070B590B0CA
:101B700000240B940C940D940E940F940A94282234
:101B80002146684600F0E7FB284D294B2B606C602E
:101B90007F23AB60FF23EB602C616C61AC61284656
:101BA000FFF70FFD23238DF82C3059238DF82D30AE
:101BB0008DF82E300E940F9401220BA92846FFF7C2
:101BC000DAFD01268DF828608DF829608DF82A60ED
:101BD00019238DF82B3032460AA92846FFF75EFDFF
:101BE0008DF800408DF8014005238DF802300194F6
:101BF000039404940594069407948DF820604FF4A0
:101C000080730993324669462846FFF733FE8DF804
:101C100002408DF820604FF4007309933246694604
:101C20002846FFF727FE10B070BD00BF3405002026
:101C30000028004008B500F083F9012000F054F9B5
:101C400000F062F908BD000008B54FF48051024869
:101C5000FEF73FFE08BD00BF000C024030B599B052
:101C6000302200210DEB020000F075FB00240794E8
:101C7000089409940A940B9403940494059406948C
:101C80000194204B1A6C42F080521A641B6C03F0D2
:101C900080530193019B02941B4B1A6842F48042CB
:101CA0001A601B6803F480430293029B09230C9380
:101CB0004FF4A0230D9301231193022512954FF4A5
:101CC0008003139308231493A823159316950423D4
:101CD00017930CA8FFF79AF80F2307930895099418
:101CE0004FF480530A930B94294607A8FFF7C6FACE
:101CF00003954FF40073069303A8FFF781FB19B017
:101D000030BD00BF003802400070004000B583B015
:101D1000FEF752FCFFF7A2FF00230193324B1A6C2F
:101D200042F080521A641A6C02F080520192019AB9
:101D30009A6822F4F8129A601A6F42F400721A67D5
:101D40002A4B01221A60FFF79BFEFFF7F7FEFFF711
:101D50000DFFFFF76FFFFFF777FF4FF48051244827
:101D6000FEF7B7FD234C244D002221462846FFF7FD
:101D70003AFE002221492846FFF760FE204600F087
:101D800045F86420FEF744FC01211D48FEF794FD50
:101D90001C4B18600128E0D11B4A13680133136003
:101DA0001D2B19D901224FF470411148FEF78BFD0C
:101DB00001211348FEF780FD0128F9D16420FEF7C8
:101DC00027FC114A536801335360142BF0D9134692
:101DD00000225A601A60EBE700224FF47041044879
:101DE000FEF771FDB9E700BF003802403C0E4742E4
:101DF000000C02401C0500203405002030050020A6
:101E000000000240C4040020A400002030B5B1B09E
:101E1000044683781C4A402120A800F0A5FA1B4DF7
:101E200063782A4640210DEB010000F09DFA2378EB
:101E30002A464021684600F097FA012000F054F845
:101E40001621084600F082F9114C002394E80600A0
:101E5000684600F063F91621372000F077F9002377
:101E600094E8060010A800F059F91621542000F05B
:101E70006DF9002394E8060020A800F04FF900F067
:101E800043F831B030BD00BFCC530008D453000834
:101E90001000002000B587B006AA02F8010D4FF02F
:101EA000FF3302930123019300920022782103481B
:101EB000FEF7EEFE07B05DF804FB00BFC80400208B
:101EC00000B585B04FF0FF33029389B201910090C5
:101ED0000123402278210348FEF7DAFE05B05DF8C1
:101EE00004FB00BFC8040020002303E0FF21054AD3
:101EF000D1540133B3F5806F03D20028F6D100210D
:101F0000F5E77047AC00002010B5002412E0A4F102
:101F10005000C0B2FFF7BEFF0020FFF7BBFF10204C
:101F2000FFF7B8FF8021054800EBC410FFF7C8FF9A
:101F30000134E4B2072CEAD910BD00BFAC00002088
:101F400008B56420FEF764FBAE20FFF7A3FF202056
:101F5000FFF7A0FF1020FFF79DFFB020FFF79AFFCB
:101F6000C820FFF797FF0020FFF794FF1020FFF72E
:101F700091FF4020FFF78EFF8120FFF78BFFFF20AE
:101F8000FFF788FFA120FFF785FFA620FFF782FF5C
:101F9000A820FFF77FFF3F20FFF77CFFA420FFF77B
:101FA00079FFD320FFF776FF0020FFF773FFD520DE
:101FB000FFF770FFF020FFF76DFFD920FFF76AFFF2
:101FC0002220FFF767FFDA20FFF764FF1220FFF7F8
:101FD00061FFDB20FFF75EFF2020FFF75BFF8D2016
:101FE000FFF758FF1420FFF755FFAF20FFF752FF10
:101FF0000020FFF779FFFFF787FF054B0022A3F8CA
:102000000024A3F80224012283F8052408BD00BFA0
:10201000AC00002010F0800F16D13F2914D8114BCE
:1020200093F8043413B1B2FA82F25209012A0CD0A7
:10203000CB0800EBC31001F0070101238B40094AD4
:10204000115C21EA030111547047CB0800EBC31067
:1020500001F0070101238B40024A115C194311541E
:10206000704700BFAC0000202DE9F04F83B002ACF8
:1020700004E90600284AB2F800249DF800603244C2
:102080007F2A43DC244AB2F802249DF801A0D346FB
:1020900052443F2A3EDC98468146002523E01E4BF1
:1020A000B3F80004B3F8021429442044B8FA88F2C3
:1020B0005209C9B2C0B2FFF7ADFF0134A64211D92F
:1020C00007FA04F313F4004FE9D0134BB3F80004FC
:1020D000B3F80214294420444246C9B2C0B2FFF703
:1020E00099FFEAE70135AA4508D9A9F1200303FBC6
:1020F0000B53019A32F813700024DFE7064BB3F854
:1021000000241644A3F80064484600E0002003B011
:10211000BDE8F08F0020FAE7AC00002070B582B077
:10212000054602A800E906001E462C785CB133463D
:1021300002AA12E906002046FFF796FF2C78A0427B
:1021400001D10135F1E7204602B070BD024BA3F882
:102150000004A3F802147047AC00002082B00021F4
:1021600000910B4B5A6C42F480425A645A6C02F450
:1021700080420092009A01911A6C42F080521A64D7
:102180001B6C03F080530193019B02B0704700BFAA
:102190000038024030B589B00023039304930593BF
:1021A000069307930268154B9A4201D009B030BDDF
:1021B00000250195124C236B43F002032363236B2C
:1021C00003F002030193019BC023039312230493A2
:1021D00001230593032306930423079303A90948C6
:1021E000FEF786FA0295236C43F400132364236CF4
:1021F00003F400130293029BD8E700BF0054004091
:1022000000380240000402400268044B9A4200D0A9
:102210007047034B01221A60FAE700BF0028004014
:102220003C0E47427047FEE7FEE7FEE7FEE77047D9
:102230007047704708B5FEF7D9F908BD0F49D1F8C6
:10224000883043F47003C1F888300D4B1A6842F0AF
:1022500001021A60002098601A6822F0847222F449
:1022600080321A60074A5A601A6822F480221A6083
:10227000D8604FF000638B60704700BF00ED00E056
:102280000038024010300024DFF834D0002103E091
:102290000C4B5B58435004310B480C4B42189A428C
:1022A000F6D30B4A02E0002342F8043B094B9A4262
:1022B000F9D3FFF7C3FF00F011F8FFF727FD7047D0
:1022C00000000220205400080000002088000020A8
:1022D0008800002058050020FEE7000070B50D4E74
:1022E0000D4CA41BA4100025A54209D10B4E0C4C8B
:1022F00000F04AFCA41BA4100025A54205D170BD26
:1023000056F8253098470135EEE756F825309847BE
:102310000135F2E718540008185400081854000852
:102320001C540008884210B501EB020307D8421E76
:1023300099420AD011F8014B02F8014FF8E78342A5
:10234000F5D98118D21AD34200D110BD13F8014D2E
:1023500001F8014DF7E702440346934200D170476C
:1023600003F8011BF9E700000CB430B5174B0C1E45
:102370009DB01D6808DA8B232B604FF0FF301DB035
:10238000BDE8304002B070474FF40273ADF814302E
:1023900014BF04F1FF332346049307934FF6FF73F2
:1023A00002900690ADF81630209A21AB02A928467B
:1023B000019300F067F8431CBCBF8B232B60002CFB
:1023C000DDD0029B00221A70D9E700BF2400002054
:1023D0002DE9F0478E689E4282460C46904699460B
:1023E00037D88A8912F4906F31D0256809696F1A3D
:1023F0006569022305EB450595FBF3F509F101033A
:102400003B449D4238BF1D46530530D5294600F058
:1024100013FB064650B90C23CAF80030A38943F0D9
:102420004003A3814FF0FF30BDE8F0873A462169B1
:1024300000F0A8FAA38923F4906343F08003A381FA
:10244000266165613E44ED1B2660A5604E464E4503
:1024500000D94E46324641462068FFF763FFA36825
:102460009B1BA36023681E4426600020DCE72A46ED
:1024700000F03CFB06460028E2D12169504600F0FE
:102480008DFAC8E72DE9F04F1D468B891F069DB0D8
:1024900080460C4616460FD50B696BB9402100F0FB
:1024A000CBFA2060206128B90C23C8F800304FF027
:1024B000FF30C8E0402363610023099320238DF897
:1024C000293030238DF82A3003954FF0010B374621
:1024D0003D4615F8013B0BB1252B3ED1B7EB060A63
:1024E0000BD05346324621464046FFF771FF01307C
:1024F00000F0A480099B534409933B78002B00F023
:102500009D8000234FF0FF32CDE90523049307930C
:102510008DF853301A932F46052217F8011B5048A7
:10252000FDF7D6FF049BD0B9D90644BF20228DF811
:1025300053201A0744BF2B228DF853202A782A2AC9
:1025400015D0079A2F4600200A25394611F8013B7D
:10255000303B092B4DD9B8B10FE02F46B8E7404AC0
:10256000801A0BFA00F0184304903D46D3E7039A13
:10257000111D12680391002A01DB079204E0524208
:1025800043F00203079204933B782E2B0CD17B7807
:102590002A2B33D1039B1A1D1B680392002BB8BF53
:1025A0004FF0FF33023705932E4D3978032228462A
:1025B000FDF78EFF38B14023401B03FA00F0049B67
:1025C000034301370493397827488DF828100622F1
:1025D0007E1CFDF77DFF002838D0244B13BB039BE6
:1025E000073323F0070308330393099B4B440993F4
:1025F0006DE705FB023201200F46A6E700230137F5
:10260000059319460A25384610F8012B303A092A55
:1026100003D9002BC8D00591C6E705FB0121012392
:102620000746F0E703AB00932246114B04A940464E
:10263000AFF30080B0F1FF3F8146D6D1A3895B069E
:102640003FF535AF09981DB0BDE8F08F03AB00939F
:102650002246074B04A9404600F082F8EAE700BF93
:10266000DC530008E2530008E653000800000000B5
:10267000D12300082DE9F04791461F468A680B696F
:10268000DDF820809342B8BF1346C9F8003091F8B6
:10269000432006460C4612B10133C9F800302368C6
:1026A000990642BFD9F800300233C9F800302568D6
:1026B00015F0060507D104F1190AE368D9F80020DE
:1026C0009B1AAB4228DC94F843302268003318BFD1
:1026D000012392062DD404F1430239463046C04707
:1026E000013020D02368E568D9F8002003F0060304
:1026F000042B08BFAD1AA36822690CBF25EAE57553
:1027000000259342C4BF9B1AED184FF000091A34FC
:102710004D451AD1002008E0012352463946304683
:10272000C047013003D14FF0FF30BDE8F0870135DD
:10273000C3E7E1185A1C302081F84300224494F882
:10274000451082F843100233C5E70123224639467B
:102750003046C0470130E6D009F10109D8E7000052
:102760002DE9F04301F1430C0C46097E85B06E293A
:102770001746064698460C9A00F0B38022D8632983
:1027800036D00AD8002900F0B980582900F083809B
:1027900004F1420584F8421032E0642901D069292D
:1027A000F6D120681368050603F104012AD51B68D9
:1027B0001160002B03DA2D225B4284F843206F481E
:1027C0000A2239E0732900F09D8008D86F2920D0B3
:1027D0007029DDD1236843F02003236003E07529CD
:1027E00017D07829D4D1782384F84530644855E04F
:1027F0001368191D1B68116004F1420584F842300A
:1028000001238CE01B68116010F0400F18BF1BB251
:10281000CFE713682568181D1060280601D51B68CE
:1028200002E06806FBD51B8854486F2914BF0A22B2
:102830000822002184F843106568A560002DC0F2CD
:102840009580216821F004012160002B3DD1002DED
:1028500040F08E806546082A0BD12368DB0708D537
:10286000236962689A42DEBF302305F8013C05F116
:10287000FF35ACEB05032361CDF800803B4603AA8E
:1028800021463046FFF7F6FE01304DD14FF0FF30C4
:1028900005B0BDE8F083394884F845101368216815
:1028A0001D1D1B6815600A060BD5CA0744BF41F001
:1028B000200121601BB9226822F020022260102230
:1028C000B7E74D0648BF9BB2EFE76546B3FBF2F1B1
:1028D00002FB1133C35C05F8013D0B460029F5D11D
:1028E000B9E7136825686169181D106028061B6820
:1028F00001D5196002E06A06FBD519800023236127
:102900006546B9E71368191D11601D6862680021EA
:102910002846FDF7DDFD08B1401B60606368236158
:10292000002384F84330A7E723692A463946304616
:10293000C0470130AAD023689B0713D4E068039BEB
:102940009842B8BF1846A3E701234A4639463046A5
:10295000C04701309AD00135E368039A9B1AAB4215
:10296000F2DCEBE7002504F11909F5E7002BACD107
:10297000037884F8423004F142056CE7ED53000817
:10298000FE53000810B5431E0A44914200D110BD09
:1029900011F8014B03F8014FF7E7000038B5054681
:1029A000002945D051F8043C0C1F002BB8BFE41897
:1029B00000F0D2F81F4A1368104633B96360146000
:1029C0002846BDE8384000F0C8B8A3420CD92168B9
:1029D0006218934204BF1A685B68636004BF5218B0
:1029E00022600460ECE713465A680AB1A242FAD9A1
:1029F00019685818A0420BD1206801445818824227
:102A00001960DDD1106852685A6001441960D7E737
:102A100002D90C232B60D3E7206821188A4204BF17
:102A200011685268626004BF091821605C60C7E7E2
:102A300038BD00BFB404002070B5CD1C25F00305DF
:102A400008350C2D38BF0C25002D064601DBA942A8
:102A500003D90C233360002070BD00F07DF8214ABB
:102A60001468214691B9204C23681BB9304600F008
:102A700063F820602946304600F05EF8431C24D1FC
:102A80000C233360304600F068F8E4E70B685B1B0A
:102A900018D40B2B0FD90B60CD50CC18304600F05A
:102AA0005CF804F10B00231D20F00700C31AD3D0FB
:102AB0005A42E250D0E78C424B6816BF6360136005
:102AC0000C46EBE70C464968CCE7C41C24F0030431
:102AD000A04205D0211A304600F02EF80130CFD0A8
:102AE0002560DBE7B4040020B8040020F8B50746F1
:102AF00014460E4621B91146BDE8F840FFF79CBFC9
:102B000022B9FFF74BFF25462846F8BD00F026F80E
:102B1000A0420FD221463846FFF78EFF0546002817
:102B2000F2D031462246FFF72DFF31463846FFF7F7
:102B300035FFE9E73546E7E738B5064C002305469B
:102B40000846236000F012F8431C02D1236803B149
:102B50002B6038BD540500207047704751F8043C85
:102B6000181F002BBCBF0B58C0187047044A0549FA
:102B70001368002B08BF0B461844106018467047B6
:102B8000BC04002058050020F8B500BFF8BC08BC04
:102B90009E467047F8B500BFF8BC08BC9E4670471B
:102BA0000000000000000000000000000000000025
:102BB0000000000000000000000000000000000015
:102BC0000000000000000000000000000000000005
:102BD00000000000E003E003E003E003E003E003A3
:102BE000E003E003C003C003C001C001C001C00195
:102BF000C001000000000000E003E003E00300006B
:102C000000000000000000003C1E3C1E3C1E3C1E5C
:102C10003C1E3C1E3C1E00000000000000000000A6
:102C200000000000000000000000000000000000A4
:102C3000000000000000000000000000CE01CE03F4
:102C4000DE039E039C039C07FF3FFF7F3807380F7E
:102C5000780F780F780EFFFFFFFFF01EF01CE01CCE
:102C6000E03CE03DE0390000000000000000000012
:102C7000FC03FE0FEE1FE01EE01EE01EE01EE01F44
:102C8000E00FE007F003FC01FE01FE01FE01FE0182
:102C9000FE01FE01FE3DFC3FF00FE001E0010000FF
:102CA00000000000033E07F78FE78EE79EE3BCE3DA
:102CB000B8E7F8E7F0F7E03FC001FF03FF07F307CD
:102CC000F30FF31EF33CF338F3787FF03FE000009E
:102CD0000000000000000000E007F80F780F781FE8
:102CE000781F781F780FF00FE00F801FC37FC3FBA2
:102CF000E7F3F7F1F7F0FFF07FF03EF87F7CFF3F5E
:102D0000EF1F00000000000000000000E003E003EF
:102D1000E003E003E003C003C00100000000000086
:102D200000000000000000000000000000000000A3
:102D30000000000000000000000000000000000093
:102D40003F007C00F001E001C003C007800780075E
:102D5000800F000F000F000F000F000F000F800FFB
:102D600080078007C007C003E001F0017C003F003E
:102D70000F000000007E001FC007C003E001F0014B
:102D8000F000F000F8007800780078007800780013
:102D90007800F800F000F000F001E001C003C00787
:102DA000001F007E00780000E003C003C001CE39A0
:102DB000FF3F7F3F20037003F807780F3C1F380662
:102DC0000000000000000000000000000000000003
:102DD00000000000000000000000000000000000F3
:102DE0000000000000000000C001C001C001C001DF
:102DF000C001C001C001FFFFFFFFC001C001C00151
:102E0000C001C001C001000000000000000000007F
:102E100000000000000000000000000000000000B2
:102E200000000000000000000000000000000000A2
:102E30000000E003E003E003E003E001E001E00163
:102E4000C00180030000000000000000000000003E
:102E500000000000000000000000FE3FFE3F0000F8
:102E60000000000000000000000000000000000062
:102E70000000000000000000000000000000000052
:102E80000000000000000000000000000000000042
:102E900000000000000000000000E003E003E00389
:102EA000E003000000000000000000000F000F0021
:102EB0001E001E003C003C0078007800F000F0008E
:102EC000E001E001C003C00380078007000F000F8E
:102ED000001E001E003C003C0078007800F000005E
:102EE000F007F80F7C1F3E3E1E3C1F7C1F7C0F78B6
:102EF0000F780F780F780F780F780F781F7C1F7C72
:102F00001E3C3E3E7C1FF80FF00700000000000052
:102F100000000000F000F007F03FF03FF001F0018A
:102F2000F001F001F001F001F001F001F001F00119
:102F3000F001F001F001F001F001FF3FFF3F000060
:102F40000000000000000000E00FF83F7C3C3C0067
:102F50003E003E003E003C003C007C00F800F001DA
:102F6000E003C0078007000F001E003E003CFE3F4C
:102F7000FE3F00000000000000000000F00FF81FFE
:102F80007C1C3E003E003E003C003C00F800F00F80
:102F9000F80F7C003E001E001E001E001E003E00BA
:102FA0007C1CF81FE01F0000000000000000000073
:102FB0007800F800F800F801F803F807F807780F30
:102FC000781E781E783C78787878FFFFFFFF7800CD
:102FD0007800780078007800780000000000000099
:102FE00000000000FC1FFC1FFC1F001E001E001E36
:102FF000001E001EE01FF81FFC007C003E003E008B
:103000001E003E003E003C007C1CF81FE01F00003C
:103010000000000000000000FC01FE078E0F001FF2
:10302000001E003E003C003CF83DFC3F3E7F1F7E02
:103030000F3C0F3C0F3C0F3C0F3E1F1E3E1FFC0F72
:10304000F00300000000000000000000FF3FFF3F11
:10305000FF3F0F001E001E003C0038007800F0000B
:10306000F000E001E001C003C0038007800F800F83
:10307000000F001F001F0000000000000000000003
:10308000F807FC0F3E1F1E1E1E3E1E3E1E1E3C1F4E
:10309000F80FF007F80FFC1E3E3E1F3C1F7C0F7C14
:1030A0000F7C1F3C3E3FFC1FF007000000000000AB
:1030B00000000000F007F80F7C1E3E3C1E3C1F7C09
:1030C0001F7C1F7C1F7C1F3C3F3EFF1FEF071F0024
:1030D0001E001E003E003C00F838F03FE01F0000DC
:1030E00000000000000000000000000000000000E0
:1030F00000000000E003E003E003E0030000000044
:1031000000000000000000000000E003E003E00316
:10311000E0030000000000000000000000000000CC
:103120000000000000000000E003E003E003E00313
:103130000000000000000000000000000000E003AC
:10314000E003E003E003E001E001E001C0038003ED
:1031500000000000000000000000000003000F005D
:103160003F00FC00F003C00F003F00FE003FC00F17
:10317000F003FC003F000F0003000000000000000F
:10318000000000000000000000000000000000003F
:103190000000000000000000FFFFFFFF0000000033
:1031A0000000FFFFFFFF0000000000000000000023
:1031B000000000000000000000000000000000000F
:1031C0000000000000E000F8007E801FE007F8012A
:1031D0007E001F007E00F801E007801F007E00F8DF
:1031E00000E000000000000000000000F01FFC3FB5
:1031F0003E381F381F381E001E003C007800F000CB
:10320000E001C003C003C007C007000000000000C9
:10321000C007C007C0070000000000000000000059
:10322000F803FE0F1E1F0F3E7F3CFF78EF79C77338
:10323000C7F38FF38FF38FF39FF39FF3FF73FF7B3E
:10324000F779003C1C1FFC0FF80300000000000091
:1032500000000000000000000000E003E003F007B1
:10326000F007F007780F780F7C0E3C1E3C1E3E3CAA
:10327000FE3FFF3F1F780F780FF007F007F00000C8
:103280000000000000000000000000000000F83F07
:10329000FC3F3E3C1E3C1E3C1E3C3E3C7C3CF03F0A
:1032A000F83F7E3C1F3C1F3C0F3C0F3C1F3CFE3F49
:1032B000F83F0000000000000000000000000000D7
:1032C0000000FF01FF07871F003E003C007C0078E4
:1032D0000078007800780078007C007C003E003F99
:1032E000831FFF07FF010000000000000000000036
:1032F000000000000000F07FFC7F7E781F781F78C0
:103300000F780F780F780F780F780F780F780F7885
:103310001F781E787E78F87FE07F000000000000B4
:1033200000000000000000000000FF3FFF3F003EE3
:10333000003E003E003E003E003EFE3FFE3F003E9F
:10334000003E003E003E003E003EFF3FFF3F0000CB
:103350000000000000000000000000000000FF1F4F
:10336000FF1F001E001E001E001E001E001EFF1F6D
:10337000FF1F001E001E001E001E001E001E001E5D
:10338000001E00000000000000000000000000001F
:103390000000FE03FF0F871F003E007C007C0078CA
:1033A00000F800F87FF87FF80F780F7C0F7C0F3E55
:1033B0008F1FFF0FFE030000000000000000000050
:1033C0000000000000001F7C1F7C1F7C1F7C1F7CF6
:1033D0001F7C1F7C1F7CFF7FFF7F1F7C1F7C1F7C4F
:1033E0001F7C1F7C1F7C1F7C1F7C000000000000D6
:1033F00000000000000000000000FF3FFF3FE0036E
:10340000E003E003E003E003E003E003E003E003A4
:10341000E003E003E003E003E003FF3FFF3F0000C1
:103420000000000000000000000000000000FC1F81
:10343000FC1F7C007C007C007C007C007C007C000D
:103440007C007C007C007C0078007800F838F03F3D
:10345000C03F00000000000000000000000000006D
:1034600000001F3C1E3C3C3C783CF03CE03DE03F13
:10347000C03F803FC03FE03FF03DF03C783C7C3CAB
:103480003E3C1F3C0F3C000000000000000000001C
:10349000000000000000003E003E003E003E003EF6
:1034A000003E003E003E003E003E003E003E003E2C
:1034B000003E003E003EFF3FFF3F000000000000D6
:1034C000000000000000000000001FF81FFC1FFCAF
:1034D0003FFE3FFE3FFE7FFF77FF77FFF7F7E7F7FF
:1034E000E7F3E7F3C7F307F007F007F007F0000092
:1034F00000000000000000000000000000000F7C41
:103500000F7C0F7E0F7F0F7F8F7F8F7FCF7FEF7BB3
:10351000EF79FF79FF78FF787F783F783F781F78E1
:103520001F78000000000000000000000000000004
:103530000000F007FC1F3E3E1F7C0F780F780FF84D
:103540000FF80FF80FF80FF80FF80F780F781F7CAF
:103550003E3EFC1FF00700000000000000000000DD
:10356000000000000000FC3FFF3F1F3E0F3E0F3EEB
:103570000F3E0F3E1F3E3F3EFC3FF03F003E003EF1
:10358000003E003E003E003E003E00000000000005
:1035900000000000000000000000F007FC1F3E3E9D
:1035A0001F7C0F780F780FF80FF80FF80FF80FF84F
:1035B0000FF80F780F781F7C3E3EFC1FF8077C0049
:1035C0003F000F0003000000000000000000F03F7B
:1035D000FC3F7E3C3E3C1E3C1E3C3E3C3C3CFC3C9E
:1035E000F03FE03FF03DF83C7C3C3E3C1E3C1F3C45
:1035F0000F3C000000000000000000000000000080
:103600000000FC07FE1F0E3E003C003C003C003E5C
:10361000C01FF80FFE037F001F000F000F001F20C8
:103620003E3CFC3FF01F00000000000000000000D6
:10363000000000000000FFFFFFFFE003E003E003E5
:10364000E003E003E003E003E003E003E003E00362
:10365000E003E003E003E003E003000000000000FB
:10366000000000000000000000000F7C0F7C0F7CB9
:103670000F7C0F7C0F7C0F7C0F7C0F7C0F7C0F7CF2
:103680000F7C0F7C1E3C1E3C3E3EFC1FF0070000E2
:10369000000000000000000000000000000007F033
:1036A00007F007F80F780F7C1E3C1E3C1E3E3C1EA8
:1036B0003C1F781F780FF80FF007F007F007E003C2
:1036C000E003000000000000000000000000000017
:1036D000000003E003F003F007F0E7F3E7F3E7F39C
:1036E000E773F77BF77FFF7F7F7F7F7F7E7F7E3F64
:1036F0003E3E3E3E3E3E0000000000000000000056
:1037000000000000000007F80F7C1E3E3E3E3C1FFC
:10371000F80FF007E007E003E003F007F80F7C0F75
:103720007C1E3E3C1F780F780FF000000000000068
:103730000000000000000000000007F807780F7C80
:103740001E3C1E3E3C1F780FF80FF007E003E0031D
:10375000E003E003E003E003E003E003E003000034
:103760000000000000000000000000000000FF7FDB
:10377000FF7F0F001F003E007C00F800F000E0011A
:10378000E003C007800F000F001E003E007CFF7F9B
:10379000FF7F00000000000000000000FF0780071E
:1037A00080078007800780078007800780078007E1
:1037B00080078007800780078007800780078007D1
:1037C00080078007800780078007FF07FF0700004A
:1037D00000780078003C003C001E001E000F000F27
:1037E00080078007C003C003E001E001F000F000A3
:1037F000780078003C003C001E001E000F000F0007
:1038000007000000F07FF000F000F000F000F00092
:10381000F000F000F000F000F000F000F000F00028
:10382000F000F000F000F000F000F000F000F00018
:10383000F000F07FF07F0000C000C001C001E00395
:10384000E003F007F0077807780F380F3C1E3C1EA6
:103850001E3C1E3C0F380F78077800000000000067
:103860000000000000000000000000000000000058
:103870000000000000000000000000000000000048
:103880000000000000000000000000000000000038
:10389000000000000000FFFFFFFF0000000000002C
:1038A000F000000000000000000000000000000028
:1038B0000000000000000000000000000000000008
:1038C00000000000000000000000000000000000F8
:1038D00000000000000000000000000000000000E8
:1038E000F80FFC3F7C3C3E003E003E00FE07FE1F02
:1038F0003E3E3E7C3E783E7C7E7CFF3FCF1F0000FC
:103900000000000000000000003C003C003C003CC7
:10391000003C003CF83DFE3F3E3F1F3E0F3C0F3C4D
:103920000F3C0F3C0F3C0F3C1F3C1E3C3E3FFC3FFE
:10393000F03B00000000000000000000000000005C
:103940000000000000000000FE03FF0F871F003E84
:10395000003E003C007C007C007C003C003E003EC1
:10396000871FFF0FFE0300000000000000000000A2
:103970001F001F001F001F001F001F00FF07FF1F69
:103980003F3E1F3C1F7C1F7C1F7C1F781F781F7CC5
:103990001F7C3F3C7F3EFF1FDF0F00000000000048
:1039A0000000000000000000000000000000000017
:1039B000F803FC0F3E1F1E3E1F3C1F7CFF7FFF7F56
:1039C000007C007C003C003E071FFF0FFE03000050
:1039D0000000000000000000FF01E103C003C00779
:1039E000C007C007FF7FFF7FC007C007C007C00731
:1039F000C007C007C007C007C007C007C007C0078F
:103A0000C0070000000000000000000000000000EF
:103A10000000000000000000EF07FF1F7F3E1F3C7A
:103A20001F7C1F7C1F781F781F781F7C1F7C3F3CEA
:103A30007F3EFF1FDF0F1E001E001E007C38F83F78
:103A4000003C003C003C003C003C003CFC3DFE3F98
:103A50009E3F1F3F1F3E1F3C1F3C1F3C1F3C1F3C07
:103A60001F3C1F3C1F3C1F3C1F3C0000000000008F
:103A700000000000F001F001000000000000000064
:103A8000E07FE07FE001E001E001E001E001E00132
:103A9000E001E001E001E001E001E001E0010000FF
:103AA0000000000000000000F800F8000000000026
:103AB00000000000F83FF83FF800F800F800F800B8
:103AC000F800F800F800F800F800F800F800F80036
:103AD000F800F800F800F000F071E07F003C003CD6
:103AE000003C003C003C003C1F3C3E3C7C3CF83C25
:103AF000F03DE03DC03FC03FE03FF03DF83C7C3C46
:103B00003E3C1F3C1F3C0000000000000000000085
:103B1000F07FF001F001F001F001F001F001F0019F
:103B2000F001F001F001F001F001F001F001F0010D
:103B3000F001F001F001F001F001000000000000D0
:103B40000000000000000000000000000000000075
:103B50009EF7FFFFFFFFFFFFE7FBE7F9C7F1C7F1A4
:103B6000C7F1C7F1C7F1C7F1C7F1C7F1C7F100004D
:103B70000000000000000000000000000000000045
:103B800000000000FC3DFE3F9E3F1F3F1F3E1F3CCC
:103B90001F3C1F3C1F3C1F3C1F3C1F3C1F3C1F3C4D
:103BA0001F3C0000000000000000000000000000BA
:103BB0000000000000000000F007FC1F3E3E1F3C1C
:103BC0001F7C0F780F780F780F780F781F7C1F3CC1
:103BD0003E3EFC1FF0070000000000000000000057
:103BE000000000000000000000000000F83DFE3F63
:103BF0003E3F1F3E0F3C0F3C0F3C0F3C0F3C0F3C29
:103C00001F3C1E3E3E3FFC3FF83F003C003C003C5A
:103C1000003C003C0000000000000000000000002C
:103C2000EE07FE1F7E3E1E3C1E7C1E781E781E7810
:103C30001E781E781E7C3E7C7E3EFE1FDE0F1E0020
:103C40001E001E001E001E000000000000000000FC
:103C5000000000007F1FFF1FE71FC71F871F001FF7
:103C6000001F001F001F001F001F001F001F001F5C
:103C7000001F000000000000000000000000000025
:103C80000000000000000000FC07FE1F0E1E003EAA
:103C9000003E003FE01FFC07FE003E001E001E002D
:103CA0003E3CFC3FF01F0000000000000000000050
:103CB000000000000000800780078007FF7FFF7F73
:103CC00080078007800780078007800780078007BC
:103CD00080078007C007FF03FF010000000000000D
:103CE00000000000000000000000000000000000D4
:103CF0001E3C1E3C1E3C1E3C1E3C1E3C1E3C1E3CF4
:103D00001E3C1E3C3E3C7E3CFE3EFE1FDE0F000085
:103D100000000000000000000000000000000000A3
:103D20000000000007F00F780F781E3C1E3C1E3E7E
:103D30003C1E3C1E780F780FF00FF007F007E003F1
:103D4000E003000000000000000000000000000090
:103D5000000000000000000003F0E3F1E3F3E7F3EC
:103D6000F7F3F7F3F77F777F7F7F7F7F7F7F3E3E9D
:103D70003E3E3E3E3E3E00000000000000000000CF
:103D80000000000000000000000000000F7C1E3E4C
:103D90003C3E3C1FF80FF007F007E003F007F80780
:103DA000F80F7C1E3E3E1F3C1F7800000000000004
:103DB0000000000000000000000000000000000003
:103DC00007F80F780F7C1E3C1E3C3C1E3C1E3C1F1F
:103DD000780FF80FF007F007E003E003C003C0031B
:103DE000C0038007800F007F00000000000000007B
:103DF00000000000FF3FFF3F1F003E007C00F80076
:103E0000F001E003C007800F001F001E003CFF7F91
:103E1000FF7F00000000000000000000FE01E00342
:103E2000C003C003C003C003E001E001E001C00122
:103E3000C003803F803FC003C001E001E001E0011A
:103E4000C003C003C003C003E003FE017E00000006
:103E5000C001C001C001C001C001C001C001C0015A
:103E6000C001C001C001C001C001C001C001C0014A
:103E7000C001C001C001C001C001C001C001C0013A
:103E8000C0010000C03FE003E001E001E001E0010B
:103E9000C001C003C003C001E001FE00FE00E0015C
:103EA000C001C003C003C001E001E001E001E00186
:103EB000E003C03F003F00000000000000000000E1
:103EC0000000000000000000000000000000073FAC
:103ED000C77FE773FFF17EF00000000000000000E4
:103EE00000000000000000000000000000000000D2
:103EF00000000000000000000000000000000000C2
:103F000000000000000000000000000000000000B1
:103F10000000000C000C000C000C000C000C000C4D
:103F2000000C000C000C000C0000000C000C000049
:103F3000000000000000001B001B001B001B001BFA
:103F40000000000000000000000000000000000071
:103F50000000000000000000000080198019801996
:103F60008019C07FC07F80190033C07FC07F0033BD
:103F70000033003300330000000000000000001E8A
:103F8000003F807580650074003C001E00078005BE
:103F9000806580658075003F001E000400040000FD
:103FA0000000007000D840D8C0D880D90073000647
:103FB000000C801BC036C066C046C00680030000EF
:103FC000000000000000001E003F003300330033FB
:103FD000001E000CC03CC066806380618063C03EF0
:103FE000801C0000000000000000000C000C000C11
:103FF000000C000C000000000000000000000000A9
:10400000000000000000000000000000800000012F
:104010000003000600060004000C000C000C000C5D
:10402000000C000C000400060006000300018000E4
:10403000002000100018000C000C00040006000610
:1040400000060006000600060004000C000C001824
:10405000001000200000000C002D003F001E003367
:104060000000000000000000000000000000000050
:104070000000000000000000000000000000000C34
:10408000000C000C000CC0FFC0FF000C000C000C6A
:10409000000C000000000000000000000000000014
:1040A0000000000000000000000000000000000010
:1040B000000000000000000C000C000400040008D8
:1040C00000000000000000000000000000000000F0
:1040D0000000001E001E00000000000000000000A4
:1040E00000000000000000000000000000000000D0
:1040F0000000000000000000000000000000000CB4
:10410000000C00000000000000000003000300039A
:104110000006000600060006000C000C000C000C57
:104120000018001800180000000000000000001E29
:10413000003F0033806180618061806D806D8061AF
:10414000806180610033003F001E0000000000001D
:1041500000000006000E001E0036002600060006C5
:104160000006000600060006000600060006000025
:10417000000000000000001E003F8073806180612D
:10418000800100030006000C001800300060807FF2
:10419000807F0000000000000000001C003E006363
:1041A00000630003000E000E0003800180018061A7
:1041B0008073003F001E00000000000000000006A9
:1041C000000E000E001E001E0016003600360066AF
:1041D000807F807F000600060006000000000000CF
:1041E0000000007F007F006000600060006E007FC4
:1041F00080638001800180618073003F001E0000A9
:10420000000000000000001E003F8033806100605D
:10421000006E007F80738061806180618033003F29
:10422000001E0000000000000000807F807F8001F1
:104230000003000300060006000C000C000C000840
:104240000018001800180000000000000000001E08
:10425000003F8063806180610021001E003F80611B
:10426000806180618061003F001E0000000000004E
:104270000000001E003F00738061806180618073D8
:10428000803F801D800180610073003F001E0000A0
:104290000000000000000000000000000000000C12
:1042A000000C000000000000000000000000000CF6
:1042B000000C0000000000000000000000000000F2
:1042C00000000000000C000C0000000000000000D6
:1042D0000000000C000C00040004000800000000B6
:1042E0000000000080008003000E003800600038ED
:1042F000000E8003800000000000000000000000AD
:1043000000000000000000000000807F807F0000AF
:104310000000807F807F000000000000000000009F
:1043200000000000000000000000000000400070DD
:10433000001C000780010007001C00700040000006
:1043400000000000000000000000001F803FC0715E
:10435000C060C000C00180030007000E000C000C0C
:104360000000000C000C0000000000000000001E17
:10437000003F803180718063806F806D806D806FC1
:10438000806700600032003E001C0000000000005A
:104390000000000E000E001B001B001B001B8031E4
:1043A0008031803F803F8031C060C060C0600000CD
:1043B000000000000000007C007E006300630063DA
:1043C0000063007E007E0063806180618063007F07
:1043D000007E0000000000000000001E003F803151
:1043E00080610060006000600060006000608061CB
:1043F0008031003F001E0000000000000000007C33
:10440000007F006380638061806180618061806182
:10441000806100630063007E007C000000000000FB
:104420000000807F807F0060006000600060007F8F
:10443000007F0060006000600060807F807F00007F
:10444000000000000000807F807F0060006000604E
:104450000060007F007F006000600060006000601E
:1044600000600000000000000000001E003F8031DE
:1044700080610060006000608063806380618061B3
:104480008031803F001E00000000000000008061BD
:1044900080618061806180618061807F807F8061D8
:1044A00080618061806180618061000000000000A7
:1044B0000000003F003F000C000C000C000C000C42
:1044C000000C000C000C000C000C003F003F000032
:1044D0000000000000008001800180018001800157
:1044E0008001800180018001806180618073003FD4
:1044F000001E0000000000000000C060806100633A
:1045000000660066006C0078007C00660066006350
:1045100080618061C0600000000000000000006059
:10452000006000600060006000600060006000608B
:10453000006000600060807F807F0000000000005D
:104540000000C071C071C07BC07AC06AC06AC06E12
:10455000C064C060C060C060C060C060C060000077
:10456000000000000000807180718079807980797E
:10457000806D806D806D80658067806780678063F7
:1045800080630000000000000000001E003F0033B8
:104590008061806180618061806180618061806113
:1045A0000033003F001E0000000000000000007EFD
:1045B000007F80638061806180618063007F007E16
:1045C000006000600060006000600000000000000B
:1045D0000000001E003F00338061806180618061C7
:1045E00080618061806580670033803F401E0000ED
:1045F000000000000000007E007F80638061806119
:104600008063007F007E00660063006380618061DC
:10461000C0600000000000000000000E001F80319C
:10462000803100300038001E000780038061806107
:104630008031003F001E0000000000000000C0FFAD
:10464000C0FF000C000C000C000C000C000C000C57
:10465000000C000C000C000C000C0000000000001E
:104660000000806180618061806180618061806123
:1046700080618061806180618073003F001E000066
:10468000000000000000C060C060C0608031803168
:104690008031001B001B001B001B000E000E000ED3
:1046A00000040000000000000000C0C0C0C0C0C086
:1046B000C0C0C0C0C0CC804C804C805E8052805254
:1046C0008073806180610000000000000000C0C0B5
:1046D000806080610033003B001E000C000C001E57
:1046E000001F003B80718061C0C00000000000001E
:1046F0000000C0C08061806100330033001E001ED6
:10470000000C000C000C000C000C000C000C000055
:10471000000000000000803F803F80010003000394
:104720000006000C000C0018001800300060807FAC
:10473000807F000000000000000F000F000C000C44
:10474000000C000C000C000C000C000C000C000C09
:10475000000C000C000C000C000F000F00000018F3
:1047600000180018000C000C000C000C00060006DD
:104770000006000600030003000300000000000024
:10478000001E001E000600060006000600060006C9
:1047900000060006000600060006000600060006E9
:1047A000001E001E0000000C000C001E0012003352
:1047B0000033806180610000000000000000000004
:1047C00000000000000000000000000000000000E9
:1047D00000000000000000000000000000000000D9
:1047E0000000000000000000E0FF000000000038B2
:1047F0000018000C00000000000000000000000095
:1048000000000000000000000000000000000000A8
:1048100000000000000000000000001F803F8061D9
:104820008001801F803F80618063807FC0380000EE
:104830000000000000000060006000600060006E8A
:10484000007F807380618061806180618073007F00
:10485000006E0000000000000000000000000000EA
:104860000000001E003F8073806100600060806176
:104870008073003F001E0000000000000000800167
:10488000800180018001801D803F80738061806194
:10489000806180618073803F801D00000000000007
:1048A00000000000000000000000001E003F007338
:1048B0008061807F807F00608071003F001E00006B
:1048C000000000000000C007C00F000C000C807F3B
:1048D000807F000C000C000C000C000C000C000C85
:1048E000000C0000000000000000000000000000BC
:1048F000801D803F807380618061806180618073F2
:10490000803F801D80018063007F003E00000060CA
:10491000006000600060006F807F80718061806156
:104920008061806180618061806100000000000022
:1049300000000006000600000000003E003E0006E9
:10494000000600060006000600060006000600003D
:10495000000000000006000600000000003E003ECF
:104960000006000600060006000600060006000617
:1049700000060046007E003C000000600060006011
:104980000060806100630066006C007C007600635C
:1049900000638061C0600000000000000000003E75
:1049A000003E00060006000600060006000600069F
:1049B00000060006000600060006000000000000D9
:1049C0000000000000000000000080DDC0FFC0CE3D
:1049D000C0CCC0CCC0CCC0CCC0CCC0CCC0CC000003
:1049E0000000000000000000000000000000006F58
:1049F000807F807180618061806180618061806181
:104A000080610000000000000000000000000000C5
:104A10000000001E003F80738061806180618061C2
:104A20008073003F001E0000000000000000000036
:104A300000000000006E007F8073806180618061F3
:104A400080618073007F006E006000600060006025
:104A50000000000000000000801D803F8073806126
:104A60008061806180618073803F801D8001800152
:104A700080018001000000000000000000000067CD
:104A8000803F00390030003000300030003000300E
:104A900000300000000000000000000000000000E6
:104AA0000000001E803F80610060007F803F800129
:104AB0008061007F001E0000000000000000000078
:104AC000000800180018007F007F00180018001868
:104AD000001800180018801F800F00000000000060
:104AE0000000000000000000000080618061806123
:104AF00080618061806180618063807F803D000093
:104B00000000000000000000000000000000C06085
:104B1000803180318031001B001B001B000E000E15
:104B2000000600000000000000000000000000007F
:104B3000000080DD80DD80DD0055005500550077E8
:104B400000770022002200000000000000000000AA
:104B5000000000000000806100330033001E000CE4
:104B6000000C001E003300338061000000000000D4
:104B7000000000000000000080618061803100338F
:104B80000033001B001B001B000E000E000E001C5B
:104B9000007C007000000000000000000000C07FEA
:104BA000C07F800100030006000C00180030C07FA9
:104BB000C07F0000000000008003800700060006A0
:104BC000000600060006000E001C001C000E000679
:104BD00000060006000600068007800300060006A7
:104BE0000006000600060006000600060006000695
:104BF0000006000600060006000600060006000685
:104C00000038003C000C000C000C000C000C000EE6
:104C100000070007000E000C000C000C000C000C3C
:104C2000003C003800000000000000000000000010
:104C300000008038807F0047000000000000000076
:104C40000000000000000000000000000000000064
:104C50000000000000000000000000000010001034
:104C600000100010001000100000001000000000F4
:104C700000280028002800000000000000000000BC
:104C80000000000000240024007C00240048007C78
:104C90000048004800000000003800540050003870
:104CA000001400540054003800100000002000548C
:104CB00000580030002800540014000800000000D4
:104CC000001000280028001000340048004800347C
:104CD00000000000001000100010000000000000A4
:104CE000000000000000000000080010002000206C
:104CF00000200020002000200010000800200010EC
:104D00000008000800080008000800080010002043
:104D10000010003800100028000000000000000013
:104D2000000000000000000000100010007C0010D7
:104D30000010000000000000000000000000000063
:104D40000000000000000010001000100000000033
:104D5000000000000000003800000000000000001B
:104D60000000000000000000000000000000001033
:104D700000000000000800080010001000100010E3
:104D800000200020000000000038004400440054CF
:104D900000440044004400380000000000100030CF
:104DA0000050001000100010001000100000000063
:104DB0000038004400440004000800100020007C7B
:104DC0000000000000380044000400180004000443
:104DD00000440038000000000008001800280028E7
:104DE0000048007C0008000800000000007C004033
:104DF0000040007800040004004400380000000077
:104E0000003800440040007800440044004400386A
:104E100000000000007C00040008001000100020CA
:104E2000002000200000000000380044004400384A
:104E300000440044004400380000000000380044F2
:104E400000440044003C000400440038000000001E
:104E50000000000000100000000000000000001032
:104E60000000000000000000000000100000000032
:104E7000000000100010001000000000000C0030C6
:104E800000400030000C00000000000000000000A6
:104E90000000007C0000007C00000000000000001A
:104EA000000000000060001800040018006000000E
:104EB000000000000038004400040008001000104A
:104EC000000000100000000000380044004C0054B6
:104ED000005C004000400038000000000010002886
:104EE000002800280028007C004400440000000046
:104EF00000780044004400780044004400440078F6
:104F00000000000000380044004000400040004025
:104F100000440038000000000070004800440044D5
:104F2000004400440048007000000000007C004085
:104F30000040007C004000400040007C0000000079
:104F4000007C0040004000780040004000400040ED
:104F5000000000000038004400400040005C0044B5
:104F60000044003800000000004400440044007C7D
:104F700000440044004400440000000000380010D9
:104F80000010001000100010001000380000000099
:104F9000000400040004000400040004004400387D
:104FA000000000000044004800500060005000482D
:104FB0000048004400000000004000400040004065
:104FC000004000400040007C000000000044006CF5
:104FD000006C005400440044004400440000000001
:104FE00000440064006400540054004C004C004431
:104FF0000000000000380044004400440044004425
:1050000000440038000000000078004400440044E0
:1050100000780040004000400000000000380044DC
:1050200000440044004400440054003800040000E0
:1050300000780044004400440078004800480044E0
:105040000000000000380044004000300008000468
:105050000044003800000000007C00100010001028
:105060000010001000100010000000000044004478
:1050700000440044004400440044003800000000A4
:1050800000440044004400280028002800100010BC
:105090000000000000440044005400540054006C20
:1050A000002800280000000000440028002800100C
:1050B00000100028002800440000000000440044C4
:1050C0000028002800100010001000100000000050
:1050D000007C000400080010001000200040007C4C
:1050E0000000000000180010001000100010001058
:1050F0000010001000100018002000200010001008
:10510000001000100008000800000000003000102F
:1051100000100010001000100010001000100030EF
:1051200000100028002800440000000000000000DB
:10513000000000000000000000000000000000006F
:1051400000000000000000FE002000100000000031
:10515000000000000000000000000000000000004F
:1051600000380044003C0044004C003400000000C3
:1051700000400040005800640044004400640058AF
:105180000000000000000000003800440040004023
:105190000044003800000000000400040034004C0B
:1051A00000440044004C00340000000000000000F7
:1051B00000380044007C004000440038000000003B
:1051C000000C0010007C00100010001000100010F7
:1051D00000000000000000000034004C00440044C7
:1051E000004C003400040078004000400058006487
:1051F000004400440044004400000000001000008F
:1052000000700010001000100010001000000000DE
:1052100000100000007000100010001000100010BE
:10522000001000E0004000400048005000600050C6
:105230000048004400000000007000100010001042
:10524000001000100010001000000000000000001E
:105250000078005400540054005400540000000032
:105260000000000000580064004400440044004472
:10527000000000000000000000380044004400442A
:1052800000440038000000000000000000580064E6
:10529000004400440064005800400040000000004A
:1052A0000034004C00440044004C0034000400046E
:1052B0000000000000580064004000400040004032
:1052C000000000000000000000380044003000082A
:1052D000004400380000000000200020007800207A
:1052E0000020002000200018000000000000000046
:1052F0000044004400440044004C0034000000001E
:10530000000000000044004400280028002800108D
:105310000000000000000000005400540054006C25
:1053200000280028000000000000000000440028C1
:1053300000100010002800440000000000000000E1
:1053400000440044002800280010001000100060F5
:1053500000000000007C0008001000200040007CDD
:1053600000000000001800100010001000200020B5
:1053700000100010001000180010001000100010A5
:10538000001000100010001000100010003000107D
:10539000001000100008000800100010001000307D
:1053A0000000000000000074004C0000000000003D
:1053B00000000000000000000000000001020304E3
:1053C00006070809000000000102030425303264CA
:1053D00000000000253032643A000000232D302BFD
:1053E0002000686C4C0065666745464700303132E6
:1053F000333435363738394142434445460030313D
:10540000323334353637383961626364656600009B
:08541000F0ADFF7F0100000078
:04541800B5010008D2
:04541C0091010008F2
:105420000100000010000000101A0000A02B00086E
:105430000B120000EC3E0008070A0000484C000870
:105440000024F400280000200000000000000000FC
:10545000000000000000000000000000000000004C
:10546000000000000000000000000000000000003C
:10547000000000000000000000000000000000002C
:10548000000000000000000000000000000000001C
:10549000000000000000000000000000000000000C
:0854A000000000000000000004
:040000050800228944
:00000001FF
